{
  "contractName": "BerryTk",
  "abi": [
    {
      "inputs": [],
      "stateMutability": "nonpayable",
      "type": "constructor"
    },
    {
      "anonymous": false,
      "inputs": [
        {
          "indexed": true,
          "internalType": "address",
          "name": "from",
          "type": "address"
        },
        {
          "indexed": true,
          "internalType": "address",
          "name": "to",
          "type": "address"
        }
      ],
      "name": "Transfer",
      "type": "event"
    },
    {
      "inputs": [
        {
          "internalType": "address",
          "name": "",
          "type": "address"
        }
      ],
      "name": "balances",
      "outputs": [
        {
          "internalType": "uint256",
          "name": "",
          "type": "uint256"
        }
      ],
      "stateMutability": "view",
      "type": "function",
      "constant": true
    },
    {
      "inputs": [],
      "name": "name",
      "outputs": [
        {
          "internalType": "string",
          "name": "",
          "type": "string"
        }
      ],
      "stateMutability": "view",
      "type": "function",
      "constant": true
    },
    {
      "inputs": [],
      "name": "owner",
      "outputs": [
        {
          "internalType": "address payable",
          "name": "",
          "type": "address"
        }
      ],
      "stateMutability": "view",
      "type": "function",
      "constant": true
    },
    {
      "inputs": [],
      "name": "symbol",
      "outputs": [
        {
          "internalType": "string",
          "name": "",
          "type": "string"
        }
      ],
      "stateMutability": "view",
      "type": "function",
      "constant": true
    },
    {
      "inputs": [],
      "name": "totalSupply",
      "outputs": [
        {
          "internalType": "uint256",
          "name": "",
          "type": "uint256"
        }
      ],
      "stateMutability": "view",
      "type": "function",
      "constant": true
    },
    {
      "inputs": [
        {
          "internalType": "uint256",
          "name": "numGett",
          "type": "uint256"
        }
      ],
      "name": "mint",
      "outputs": [],
      "stateMutability": "payable",
      "type": "function",
      "payable": true
    },
    {
      "inputs": [],
      "name": "useToken",
      "outputs": [],
      "stateMutability": "nonpayable",
      "type": "function"
    },
    {
      "inputs": [
        {
          "internalType": "address",
          "name": "tokenOwner",
          "type": "address"
        }
      ],
      "name": "balanceOf",
      "outputs": [
        {
          "internalType": "uint256",
          "name": "",
          "type": "uint256"
        }
      ],
      "stateMutability": "view",
      "type": "function",
      "constant": true
    }
  ],
  "bytecode": "0x60806040526040518060400160405280600581526020017f42455252590000000000000000000000000000000000000000000000000000008152506000908051906020019061004f9291906100f7565b506040518060400160405280600381526020017f42544b00000000000000000000000000000000000000000000000000000000008152506001908051906020019061009b9291906100f7565b503480156100a857600080fd5b50600060028190555033600360006101000a81548173ffffffffffffffffffffffffffffffffffffffff021916908373ffffffffffffffffffffffffffffffffffffffff1602179055506101fb565b8280546101039061019a565b90600052602060002090601f016020900481019282610125576000855561016c565b82601f1061013e57805160ff191683800117855561016c565b8280016001018555821561016c579182015b8281111561016b578251825591602001919060010190610150565b5b509050610179919061017d565b5090565b5b8082111561019657600081600090555060010161017e565b5090565b600060028204905060018216806101b257607f821691505b602082108114156101c6576101c56101cc565b5b50919050565b7f4e487b7100000000000000000000000000000000000000000000000000000000600052602260045260246000fd5b610a74806200020b6000396000f3fe60806040526004361061007b5760003560e01c80638da5cb5b1161004e5780638da5cb5b1461015057806395d89b411461017b578063a0712d68146101a6578063f8824518146101c25761007b565b806306fdde031461008057806318160ddd146100ab57806327e235e3146100d657806370a0823114610113575b600080fd5b34801561008c57600080fd5b506100956101d9565b6040516100a29190610771565b60405180910390f35b3480156100b757600080fd5b506100c0610267565b6040516100cd91906107d3565b60405180910390f35b3480156100e257600080fd5b506100fd60048036038101906100f8919061062d565b61026d565b60405161010a91906107d3565b60405180910390f35b34801561011f57600080fd5b5061013a6004803603810190610135919061062d565b610285565b60405161014791906107d3565b60405180910390f35b34801561015c57600080fd5b506101656102ce565b6040516101729190610756565b60405180910390f35b34801561018757600080fd5b506101906102f4565b60405161019d9190610771565b60405180910390f35b6101c060048036038101906101bb9190610656565b610382565b005b3480156101ce57600080fd5b506101d76104b3565b005b600080546101e69061096f565b80601f01602080910402602001604051908101604052809291908181526020018280546102129061096f565b801561025f5780601f106102345761010080835404028352916020019161025f565b820191906000526020600020905b81548152906001019060200180831161024257829003601f168201915b505050505081565b60025481565b60046020528060005260406000206000915090505481565b6000600460008373ffffffffffffffffffffffffffffffffffffffff1673ffffffffffffffffffffffffffffffffffffffff168152602001908152602001600020549050919050565b600360009054906101000a900473ffffffffffffffffffffffffffffffffffffffff1681565b600180546103019061096f565b80601f016020809104026020016040519081016040528092919081815260200182805461032d9061096f565b801561037a5780601f1061034f5761010080835404028352916020019161037a565b820191906000526020600020905b81548152906001019060200180831161035d57829003601f168201915b505050505081565b670de0b6b3a7640000816103969190610860565b3410156103d8576040517f08c379a00000000000000000000000000000000000000000000000000000000081526004016103cf90610793565b60405180910390fd5b600360009054906101000a900473ffffffffffffffffffffffffffffffffffffffff1673ffffffffffffffffffffffffffffffffffffffff166108fc349081150290604051600060405180830381858888f19350505050158015610440573d6000803e3d6000fd5b5080600460003373ffffffffffffffffffffffffffffffffffffffff1673ffffffffffffffffffffffffffffffffffffffff1681526020019081526020016000206000828254610490919061080a565b9250508190555080600260008282546104a9919061080a565b9250508190555050565b6000600460003373ffffffffffffffffffffffffffffffffffffffff1673ffffffffffffffffffffffffffffffffffffffff1681526020019081526020016000205411610535576040517f08c379a000000000000000000000000000000000000000000000000000000000815260040161052c906107b3565b60405180910390fd5b6001600460003373ffffffffffffffffffffffffffffffffffffffff1673ffffffffffffffffffffffffffffffffffffffff168152602001908152602001600020600082825461058591906108ba565b9250508190555060016002600082825461059f91906108ba565b92505081905550600073ffffffffffffffffffffffffffffffffffffffff163373ffffffffffffffffffffffffffffffffffffffff167f4853ae1b4d437c4255ac16cd3ceda3465975023f27cb141584cd9d44440fed8260405160405180910390a3565b60008135905061061281610a10565b92915050565b60008135905061062781610a27565b92915050565b60006020828403121561063f57600080fd5b600061064d84828501610603565b91505092915050565b60006020828403121561066857600080fd5b600061067684828501610618565b91505092915050565b61068881610900565b82525050565b6000610699826107ee565b6106a381856107f9565b93506106b381856020860161093c565b6106bc816109ff565b840191505092915050565b60006106d46015836107f9565b91507f496e73756666696369656e74204554482073656e7400000000000000000000006000830152602082019050919050565b60006107146013836107f9565b91507f496e73756666696369656e7420746f6b656e73000000000000000000000000006000830152602082019050919050565b61075081610932565b82525050565b600060208201905061076b600083018461067f565b92915050565b6000602082019050818103600083015261078b818461068e565b905092915050565b600060208201905081810360008301526107ac816106c7565b9050919050565b600060208201905081810360008301526107cc81610707565b9050919050565b60006020820190506107e86000830184610747565b92915050565b600081519050919050565b600082825260208201905092915050565b600061081582610932565b915061082083610932565b9250827fffffffffffffffffffffffffffffffffffffffffffffffffffffffffffffffff03821115610855576108546109a1565b5b828201905092915050565b600061086b82610932565b915061087683610932565b9250817fffffffffffffffffffffffffffffffffffffffffffffffffffffffffffffffff04831182151516156108af576108ae6109a1565b5b828202905092915050565b60006108c582610932565b91506108d083610932565b9250828210156108e3576108e26109a1565b5b828203905092915050565b60006108f982610912565b9050919050565b600061090b82610912565b9050919050565b600073ffffffffffffffffffffffffffffffffffffffff82169050919050565b6000819050919050565b60005b8381101561095a57808201518184015260208101905061093f565b83811115610969576000848401525b50505050565b6000600282049050600182168061098757607f821691505b6020821081141561099b5761099a6109d0565b5b50919050565b7f4e487b7100000000000000000000000000000000000000000000000000000000600052601160045260246000fd5b7f4e487b7100000000000000000000000000000000000000000000000000000000600052602260045260246000fd5b6000601f19601f8301169050919050565b610a19816108ee565b8114610a2457600080fd5b50565b610a3081610932565b8114610a3b57600080fd5b5056fea26469706673582212204cf1c6f47c69e1dd6a7dc38c7dd0cceebc3573db304e26ee2fb131d6214df19e64736f6c63430008000033",
  "immutableReferences": {},
  "source": "// SPDX-License-Identifier: MIT\r\npragma solidity ^0.8.0;\r\n\r\ncontract BerryTk {\r\n    string public name = \"BERRY\";\r\n    string public symbol = \"BTK\";\r\n    uint256 public totalSupply;\r\n    address payable public owner;\r\n\r\n    mapping(address => uint256) public balances;\r\n\r\n    event Transfer(address indexed from, address indexed to);\r\n\r\n    constructor() {\r\n        totalSupply = 0;\r\n        owner = payable(msg.sender);\r\n    }\r\n\r\n    function mint(uint256 numGett) external payable {\r\n        require(msg.value >= numGett * 1 ether, \"Insufficient ETH sent\");\r\n        owner.transfer(msg.value);\r\n        balances[msg.sender] += numGett;\r\n        totalSupply += numGett;\r\n    }\r\n\r\n    function useToken() external {\r\n        require(balances[msg.sender] > 0, \"Insufficient tokens\");\r\n        \r\n        // Brucia il token\r\n        balances[msg.sender] -= 1;\r\n        totalSupply -= 1;\r\n\r\n        emit Transfer(msg.sender, address(0));\r\n    }\r\n\r\n    function balanceOf(address tokenOwner) external view returns (uint256) {\r\n        return balances[tokenOwner];\r\n    }\r\n}\r\n\r\n/*\r\ncontract GameToken {\r\n    string public name = \"BERRY\";\r\n    string public symbol = \"BTK\";\r\n    uint256 public totalSupply;\r\n    address payable public owner;\r\n\r\n    mapping(address => uint256) public balances;\r\n\r\n    event Transfer(address indexed from, address indexed to);\r\n\r\n    constructor() {\r\n        totalSupply = 0;\r\n        owner = payable(msg.sender);\r\n\r\n    }\r\n\r\n    function mint(uint256 numGett, address payable _receiver) external payable {\r\n        require(msg.value >= numGett*1 ether, \"Insufficient ETH sent\");\r\n        _receiver.transfer(msg.value);\r\n        balances[msg.sender]+=numGett;\r\n        totalSupply+=numGett;\r\n    }\r\n\r\n    function balanceOf(address tokenOwner) public view returns (uint256) {\r\n        return balances[tokenOwner];\r\n    }\r\n\r\n    function setToken() external{\r\n        balances[msg.sender]-=1;\r\n    }\r\n}*/",
  "sourcePath": "/mnt/c/Users/giorg/Documents/GitHub/Blockchain_project/contracts/Gettoni.sol",
  "compiler": {
    "name": "solc",
    "version": "0.8.0+commit.c7dfd78e.Emscripten.clang"
  },
  "schemaVersion": "3.4.16",
  "updatedAt": "2024-03-06T22:24:20.631Z",
  "networkType": "ethereum",
  "devdoc": {
    "kind": "dev",
    "methods": {},
    "version": 1
  },
  "userdoc": {
    "kind": "user",
    "methods": {},
    "version": 1
  }
}