{
  "contractName": "BerryTk",
  "abi": [
    {
      "inputs": [],
      "stateMutability": "nonpayable",
      "type": "constructor"
    },
    {
      "anonymous": false,
      "inputs": [
        {
          "indexed": true,
          "internalType": "address",
          "name": "from",
          "type": "address"
        },
        {
          "indexed": true,
          "internalType": "address",
          "name": "to",
          "type": "address"
        }
      ],
      "name": "Transfer",
      "type": "event"
    },
    {
      "inputs": [
        {
          "internalType": "address",
          "name": "",
          "type": "address"
        }
      ],
      "name": "balances",
      "outputs": [
        {
          "internalType": "uint256",
          "name": "",
          "type": "uint256"
        }
      ],
      "stateMutability": "view",
      "type": "function",
      "constant": true
    },
    {
      "inputs": [],
      "name": "name",
      "outputs": [
        {
          "internalType": "string",
          "name": "",
          "type": "string"
        }
      ],
      "stateMutability": "view",
      "type": "function",
      "constant": true
    },
    {
      "inputs": [],
      "name": "owner",
      "outputs": [
        {
          "internalType": "address payable",
          "name": "",
          "type": "address"
        }
      ],
      "stateMutability": "view",
      "type": "function",
      "constant": true
    },
    {
      "inputs": [],
      "name": "symbol",
      "outputs": [
        {
          "internalType": "string",
          "name": "",
          "type": "string"
        }
      ],
      "stateMutability": "view",
      "type": "function",
      "constant": true
    },
    {
      "inputs": [],
      "name": "totalSupply",
      "outputs": [
        {
          "internalType": "uint256",
          "name": "",
          "type": "uint256"
        }
      ],
      "stateMutability": "view",
      "type": "function",
      "constant": true
    },
    {
      "inputs": [
        {
          "internalType": "uint256",
          "name": "numGett",
          "type": "uint256"
        }
      ],
      "name": "mint",
      "outputs": [],
      "stateMutability": "payable",
      "type": "function",
      "payable": true
    },
    {
      "inputs": [],
      "name": "useToken",
      "outputs": [
        {
          "internalType": "bool",
          "name": "",
          "type": "bool"
        }
      ],
      "stateMutability": "nonpayable",
      "type": "function"
    },
    {
      "inputs": [
        {
          "internalType": "address",
          "name": "tokenOwner",
          "type": "address"
        }
      ],
      "name": "balanceOf",
      "outputs": [
        {
          "internalType": "uint256",
          "name": "",
          "type": "uint256"
        }
      ],
      "stateMutability": "view",
      "type": "function",
      "constant": true
    }
  ],
  "bytecode": "0x60806040526040518060400160405280600581526020017f42455252590000000000000000000000000000000000000000000000000000008152506000908051906020019061004f9291906100f7565b506040518060400160405280600381526020017f42544b00000000000000000000000000000000000000000000000000000000008152506001908051906020019061009b9291906100f7565b503480156100a857600080fd5b50600060028190555033600360006101000a81548173ffffffffffffffffffffffffffffffffffffffff021916908373ffffffffffffffffffffffffffffffffffffffff1602179055506101fb565b8280546101039061019a565b90600052602060002090601f016020900481019282610125576000855561016c565b82601f1061013e57805160ff191683800117855561016c565b8280016001018555821561016c579182015b8281111561016b578251825591602001919060010190610150565b5b509050610179919061017d565b5090565b5b8082111561019657600081600090555060010161017e565b5090565b600060028204905060018216806101b257607f821691505b602082108114156101c6576101c56101cc565b5b50919050565b7f4e487b7100000000000000000000000000000000000000000000000000000000600052602260045260246000fd5b610ac4806200020b6000396000f3fe60806040526004361061007b5760003560e01c80638da5cb5b1161004e5780638da5cb5b1461015057806395d89b411461017b578063a0712d68146101a6578063f8824518146101c25761007b565b806306fdde031461008057806318160ddd146100ab57806327e235e3146100d657806370a0823114610113575b600080fd5b34801561008c57600080fd5b506100956101ed565b6040516100a291906107b5565b60405180910390f35b3480156100b757600080fd5b506100c061027b565b6040516100cd9190610817565b60405180910390f35b3480156100e257600080fd5b506100fd60048036038101906100f89190610647565b610281565b60405161010a9190610817565b60405180910390f35b34801561011f57600080fd5b5061013a60048036038101906101359190610647565b610299565b6040516101479190610817565b60405180910390f35b34801561015c57600080fd5b506101656102e2565b604051610172919061077f565b60405180910390f35b34801561018757600080fd5b50610190610308565b60405161019d91906107b5565b60405180910390f35b6101c060048036038101906101bb9190610670565b610396565b005b3480156101ce57600080fd5b506101d76104c7565b6040516101e4919061079a565b60405180910390f35b600080546101fa906109bf565b80601f0160208091040260200160405190810160405280929190818152602001828054610226906109bf565b80156102735780601f1061024857610100808354040283529160200191610273565b820191906000526020600020905b81548152906001019060200180831161025657829003601f168201915b505050505081565b60025481565b60046020528060005260406000206000915090505481565b6000600460008373ffffffffffffffffffffffffffffffffffffffff1673ffffffffffffffffffffffffffffffffffffffff168152602001908152602001600020549050919050565b600360009054906101000a900473ffffffffffffffffffffffffffffffffffffffff1681565b60018054610315906109bf565b80601f0160208091040260200160405190810160405280929190818152602001828054610341906109bf565b801561038e5780601f106103635761010080835404028352916020019161038e565b820191906000526020600020905b81548152906001019060200180831161037157829003601f168201915b505050505081565b670de0b6b3a7640000816103aa91906108a4565b3410156103ec576040517f08c379a00000000000000000000000000000000000000000000000000000000081526004016103e3906107d7565b60405180910390fd5b600360009054906101000a900473ffffffffffffffffffffffffffffffffffffffff1673ffffffffffffffffffffffffffffffffffffffff166108fc349081150290604051600060405180830381858888f19350505050158015610454573d6000803e3d6000fd5b5080600460003373ffffffffffffffffffffffffffffffffffffffff1673ffffffffffffffffffffffffffffffffffffffff16815260200190815260200160002060008282546104a4919061084e565b9250508190555080600260008282546104bd919061084e565b9250508190555050565b600080600460003373ffffffffffffffffffffffffffffffffffffffff1673ffffffffffffffffffffffffffffffffffffffff168152602001908152602001600020541161054a576040517f08c379a0000000000000000000000000000000000000000000000000000000008152600401610541906107f7565b60405180910390fd5b6001600460003373ffffffffffffffffffffffffffffffffffffffff1673ffffffffffffffffffffffffffffffffffffffff168152602001908152602001600020600082825461059a91906108fe565b925050819055506001600260008282546105b491906108fe565b92505081905550600073ffffffffffffffffffffffffffffffffffffffff163373ffffffffffffffffffffffffffffffffffffffff167f4853ae1b4d437c4255ac16cd3ceda3465975023f27cb141584cd9d44440fed8260405160405180910390a36001905090565b60008135905061062c81610a60565b92915050565b60008135905061064181610a77565b92915050565b60006020828403121561065957600080fd5b60006106678482850161061d565b91505092915050565b60006020828403121561068257600080fd5b600061069084828501610632565b91505092915050565b6106a281610944565b82525050565b6106b181610956565b82525050565b60006106c282610832565b6106cc818561083d565b93506106dc81856020860161098c565b6106e581610a4f565b840191505092915050565b60006106fd60158361083d565b91507f496e73756666696369656e74204554482073656e7400000000000000000000006000830152602082019050919050565b600061073d60138361083d565b91507f496e73756666696369656e7420746f6b656e73000000000000000000000000006000830152602082019050919050565b61077981610982565b82525050565b60006020820190506107946000830184610699565b92915050565b60006020820190506107af60008301846106a8565b92915050565b600060208201905081810360008301526107cf81846106b7565b905092915050565b600060208201905081810360008301526107f0816106f0565b9050919050565b6000602082019050818103600083015261081081610730565b9050919050565b600060208201905061082c6000830184610770565b92915050565b600081519050919050565b600082825260208201905092915050565b600061085982610982565b915061086483610982565b9250827fffffffffffffffffffffffffffffffffffffffffffffffffffffffffffffffff03821115610899576108986109f1565b5b828201905092915050565b60006108af82610982565b91506108ba83610982565b9250817fffffffffffffffffffffffffffffffffffffffffffffffffffffffffffffffff04831182151516156108f3576108f26109f1565b5b828202905092915050565b600061090982610982565b915061091483610982565b925082821015610927576109266109f1565b5b828203905092915050565b600061093d82610962565b9050919050565b600061094f82610962565b9050919050565b60008115159050919050565b600073ffffffffffffffffffffffffffffffffffffffff82169050919050565b6000819050919050565b60005b838110156109aa57808201518184015260208101905061098f565b838111156109b9576000848401525b50505050565b600060028204905060018216806109d757607f821691505b602082108114156109eb576109ea610a20565b5b50919050565b7f4e487b7100000000000000000000000000000000000000000000000000000000600052601160045260246000fd5b7f4e487b7100000000000000000000000000000000000000000000000000000000600052602260045260246000fd5b6000601f19601f8301169050919050565b610a6981610932565b8114610a7457600080fd5b50565b610a8081610982565b8114610a8b57600080fd5b5056fea2646970667358221220a5ed86f45e0601dc5ff9bbfdc287a09596d96098c9bb4333410a55869589ceee64736f6c63430008000033",
  "immutableReferences": {},
  "source": "// SPDX-License-Identifier: MIT\r\npragma solidity ^0.8.0;\r\n\r\ncontract BerryTk {\r\n    string public name = \"BERRY\";\r\n    string public symbol = \"BTK\";\r\n    uint256 public totalSupply;\r\n    address payable public owner;\r\n\r\n    mapping(address => uint256) public balances;\r\n\r\n    event Transfer(address indexed from, address indexed to);\r\n\r\n    constructor() {\r\n        totalSupply = 0;\r\n        owner = payable(msg.sender);\r\n    }\r\n\r\n    function mint(uint256 numGett) external payable {\r\n        require(msg.value >= numGett * 1 ether, \"Insufficient ETH sent\");\r\n        owner.transfer(msg.value);\r\n        balances[msg.sender] += numGett;\r\n        totalSupply += numGett;\r\n    }\r\n\r\n    function useToken() external returns (bool){\r\n        require(balances[msg.sender] > 0, \"Insufficient tokens\");\r\n        \r\n        // Brucia il token\r\n        balances[msg.sender] -= 1;\r\n        totalSupply -= 1;\r\n\r\n        emit Transfer(msg.sender, address(0));\r\n        return true;\r\n    }\r\n\r\n    function balanceOf(address tokenOwner) external view returns (uint256) {\r\n        return balances[tokenOwner];\r\n    }\r\n}\r\n\r\n/*\r\ncontract GameToken {\r\n    string public name = \"BERRY\";\r\n    string public symbol = \"BTK\";\r\n    uint256 public totalSupply;\r\n    address payable public owner;\r\n\r\n    mapping(address => uint256) public balances;\r\n\r\n    event Transfer(address indexed from, address indexed to);\r\n\r\n    constructor() {\r\n        totalSupply = 0;\r\n        owner = payable(msg.sender);\r\n\r\n    }\r\n\r\n    function mint(uint256 numGett, address payable _receiver) external payable {\r\n        require(msg.value >= numGett*1 ether, \"Insufficient ETH sent\");\r\n        _receiver.transfer(msg.value);\r\n        balances[msg.sender]+=numGett;\r\n        totalSupply+=numGett;\r\n    }\r\n\r\n    function balanceOf(address tokenOwner) public view returns (uint256) {\r\n        return balances[tokenOwner];\r\n    }\r\n\r\n    function setToken() external{\r\n        balances[msg.sender]-=1;\r\n    }\r\n}*/",
  "sourcePath": "/mnt/c/Users/giorg/Documents/GitHub/Blockchain_project/contracts/Gettoni.sol",
  "compiler": {
    "name": "solc",
    "version": "0.8.0+commit.c7dfd78e.Emscripten.clang"
  },
  "schemaVersion": "3.4.16",
  "updatedAt": "2024-03-07T18:49:26.700Z",
  "networkType": "ethereum",
  "devdoc": {
    "kind": "dev",
    "methods": {},
    "version": 1
  },
  "userdoc": {
    "kind": "user",
    "methods": {},
    "version": 1
  }
}