{
  "contractName": "Keygen",
  "abi": [
    {
      "inputs": [],
      "stateMutability": "nonpayable",
      "type": "constructor"
    },
    {
      "inputs": [],
      "name": "owner",
      "outputs": [
        {
          "internalType": "address payable",
          "name": "",
          "type": "address"
        }
      ],
      "stateMutability": "view",
      "type": "function",
      "constant": true
    },
    {
      "inputs": [
        {
          "internalType": "string",
          "name": "input",
          "type": "string"
        }
      ],
      "name": "generateKeccak256",
      "outputs": [
        {
          "internalType": "bytes32",
          "name": "",
          "type": "bytes32"
        }
      ],
      "stateMutability": "pure",
      "type": "function",
      "constant": true
    },
    {
      "inputs": [
        {
          "internalType": "bytes32",
          "name": "data",
          "type": "bytes32"
        }
      ],
      "name": "bytes32ToString",
      "outputs": [
        {
          "internalType": "string",
          "name": "",
          "type": "string"
        }
      ],
      "stateMutability": "pure",
      "type": "function",
      "constant": true
    }
  ],
  "bytecode": "0x608060405234801561001057600080fd5b50336000806101000a81548173ffffffffffffffffffffffffffffffffffffffff021916908373ffffffffffffffffffffffffffffffffffffffff16021790555061081e806100606000396000f3fe608060405234801561001057600080fd5b50600436106100415760003560e01c80637cea2938146100465780638da5cb5b146100765780639201de5514610094575b600080fd5b610060600480360381019061005b91906102f9565b6100c4565b60405161006d91906103f4565b60405180910390f35b61007e6100f4565b60405161008b91906103d9565b60405180910390f35b6100ae60048036038101906100a991906102d0565b610118565b6040516100bb919061040f565b60405180910390f35b6000816040516020016100d791906103c2565b604051602081830303815290604052805190602001209050919050565b60008054906101000a900473ffffffffffffffffffffffffffffffffffffffff1681565b60606000602067ffffffffffffffff81111561015d577f4e487b7100000000000000000000000000000000000000000000000000000000600052604160045260246000fd5b6040519080825280601f01601f19166020018201604052801561018f5781602001600182028036833780820191505090505b50905060005b60208110156102495760008160086101ad919061062a565b60026101b9919061050c565b8560001c6101c7919061062a565b60001b905080838381518110610206577f4e487b7100000000000000000000000000000000000000000000000000000000600052603260045260246000fd5b60200101907effffffffffffffffffffffffffffffffffffffffffffffffffffffffffffff1916908160001a9053505080806102419061070c565b915050610195565b5080915050919050565b600061026661026184610462565b610431565b90508281526020810184848401111561027e57600080fd5b6102898482856106ca565b509392505050565b6000813590506102a0816107d1565b92915050565b600082601f8301126102b757600080fd5b81356102c7848260208601610253565b91505092915050565b6000602082840312156102e257600080fd5b60006102f084828501610291565b91505092915050565b60006020828403121561030b57600080fd5b600082013567ffffffffffffffff81111561032557600080fd5b610331848285016102a6565b91505092915050565b61034381610684565b82525050565b61035281610696565b82525050565b600061036382610492565b61036d818561049d565b935061037d8185602086016106d9565b610386816107b3565b840191505092915050565b600061039c82610492565b6103a681856104ae565b93506103b68185602086016106d9565b80840191505092915050565b60006103ce8284610391565b915081905092915050565b60006020820190506103ee600083018461033a565b92915050565b60006020820190506104096000830184610349565b92915050565b600060208201905081810360008301526104298184610358565b905092915050565b6000604051905081810181811067ffffffffffffffff8211171561045857610457610784565b5b8060405250919050565b600067ffffffffffffffff82111561047d5761047c610784565b5b601f19601f8301169050602081019050919050565b600081519050919050565b600082825260208201905092915050565b600081905092915050565b6000808291508390505b6001851115610503578086048111156104df576104de610755565b5b60018516156104ee5780820291505b80810290506104fc856107c4565b94506104c3565b94509492505050565b6000610517826106c0565b9150610522836106c0565b925061054f7fffffffffffffffffffffffffffffffffffffffffffffffffffffffffffffffff8484610557565b905092915050565b6000826105675760019050610623565b816105755760009050610623565b816001811461058b5760028114610595576105c4565b6001915050610623565b60ff8411156105a7576105a6610755565b5b8360020a9150848211156105be576105bd610755565b5b50610623565b5060208310610133831016604e8410600b84101617156105f95782820a9050838111156105f4576105f3610755565b5b610623565b61060684848460016104b9565b9250905081840481111561061d5761061c610755565b5b81810290505b9392505050565b6000610635826106c0565b9150610640836106c0565b9250817fffffffffffffffffffffffffffffffffffffffffffffffffffffffffffffffff048311821515161561067957610678610755565b5b828202905092915050565b600061068f826106a0565b9050919050565b6000819050919050565b600073ffffffffffffffffffffffffffffffffffffffff82169050919050565b6000819050919050565b82818337600083830152505050565b60005b838110156106f75780820151818401526020810190506106dc565b83811115610706576000848401525b50505050565b6000610717826106c0565b91507fffffffffffffffffffffffffffffffffffffffffffffffffffffffffffffffff82141561074a57610749610755565b5b600182019050919050565b7f4e487b7100000000000000000000000000000000000000000000000000000000600052601160045260246000fd5b7f4e487b7100000000000000000000000000000000000000000000000000000000600052604160045260246000fd5b6000601f19601f8301169050919050565b60008160011c9050919050565b6107da81610696565b81146107e557600080fd5b5056fea2646970667358221220fcda8cb72fcb4fac8b0beef848644b107df48f55a917fea159cb14a89cd402c264736f6c63430008000033",
  "immutableReferences": {},
  "source": "// SPDX-License-Identifier: MIT\npragma solidity ^0.8.0;\n\n// Contract definition\ncontract Keygen {\n address payable public owner;\n\n    constructor() {\n        owner = payable(msg.sender);\n    }\n    // Function to generate Keccak-256 hash from a string\n    function generateKeccak256(string memory input) public pure returns (bytes32) {\n        // Convert the string to bytes and calculate the Keccak-256 hash\n        return keccak256(abi.encodePacked(input));\n    }\n\n    function bytes32ToString(bytes32 data) public pure returns (string memory) {\n        bytes memory bytesString = new bytes(32);\n        for (uint256 i = 0; i < 32; i++) {\n            bytes1 char = bytes1(bytes32(uint256(data) * 2 ** (8 * i)));\n            bytesString[i] = char;\n        }\n        return string(bytesString);\n    }\n}\n",
  "sourcePath": "/home/kub/Desktop/Blockchain_project/contracts/Keygen.sol",
  "compiler": {
    "name": "solc",
    "version": "0.8.0+commit.c7dfd78e.Emscripten.clang"
  },
  "schemaVersion": "3.4.15",
  "updatedAt": "2024-02-05T17:52:25.089Z",
  "networkType": "ethereum",
  "devdoc": {
    "kind": "dev",
    "methods": {},
    "version": 1
  },
  "userdoc": {
    "kind": "user",
    "methods": {},
    "version": 1
  }
}