{
  "contractName": "Keygen",
  "abi": [
    {
      "inputs": [
        {
          "internalType": "string",
          "name": "input",
          "type": "string"
        }
      ],
      "name": "generateKeccak256",
      "outputs": [
        {
          "internalType": "bytes32",
          "name": "",
          "type": "bytes32"
        }
      ],
      "stateMutability": "pure",
      "type": "function",
      "constant": true
    },
    {
      "inputs": [
        {
          "internalType": "bytes32",
          "name": "data",
          "type": "bytes32"
        }
      ],
      "name": "bytes32ToString",
      "outputs": [
        {
          "internalType": "string",
          "name": "",
          "type": "string"
        }
      ],
      "stateMutability": "pure",
      "type": "function",
      "constant": true
    }
  ],
  "bytecode": "0x608060405234801561001057600080fd5b50610775806100206000396000f3fe608060405234801561001057600080fd5b50600436106100365760003560e01c80637cea29381461003b5780639201de551461006b575b600080fd5b610055600480360381019061005091906102ac565b61009b565b604051610062919061037d565b60405180910390f35b61008560048036038101906100809190610283565b6100cb565b6040516100929190610398565b60405180910390f35b6000816040516020016100ae9190610366565b604051602081830303815290604052805190602001209050919050565b60606000602067ffffffffffffffff811115610110577f4e487b7100000000000000000000000000000000000000000000000000000000600052604160045260246000fd5b6040519080825280601f01601f1916602001820160405280156101425781602001600182028036833780820191505090505b50905060005b60208110156101fc57600081600861016091906105b3565b600261016c9190610495565b8560001c61017a91906105b3565b60001b9050808383815181106101b9577f4e487b7100000000000000000000000000000000000000000000000000000000600052603260045260246000fd5b60200101907effffffffffffffffffffffffffffffffffffffffffffffffffffffffffffff1916908160001a9053505080806101f490610663565b915050610148565b5080915050919050565b6000610219610214846103eb565b6103ba565b90508281526020810184848401111561023157600080fd5b61023c848285610621565b509392505050565b60008135905061025381610728565b92915050565b600082601f83011261026a57600080fd5b813561027a848260208601610206565b91505092915050565b60006020828403121561029557600080fd5b60006102a384828501610244565b91505092915050565b6000602082840312156102be57600080fd5b600082013567ffffffffffffffff8111156102d857600080fd5b6102e484828501610259565b91505092915050565b6102f68161060d565b82525050565b60006103078261041b565b6103118185610426565b9350610321818560208601610630565b61032a8161070a565b840191505092915050565b60006103408261041b565b61034a8185610437565b935061035a818560208601610630565b80840191505092915050565b60006103728284610335565b915081905092915050565b600060208201905061039260008301846102ed565b92915050565b600060208201905081810360008301526103b281846102fc565b905092915050565b6000604051905081810181811067ffffffffffffffff821117156103e1576103e06106db565b5b8060405250919050565b600067ffffffffffffffff821115610406576104056106db565b5b601f19601f8301169050602081019050919050565b600081519050919050565b600082825260208201905092915050565b600081905092915050565b6000808291508390505b600185111561048c57808604811115610468576104676106ac565b5b60018516156104775780820291505b80810290506104858561071b565b945061044c565b94509492505050565b60006104a082610617565b91506104ab83610617565b92506104d87fffffffffffffffffffffffffffffffffffffffffffffffffffffffffffffffff84846104e0565b905092915050565b6000826104f057600190506105ac565b816104fe57600090506105ac565b8160018114610514576002811461051e5761054d565b60019150506105ac565b60ff8411156105305761052f6106ac565b5b8360020a915084821115610547576105466106ac565b5b506105ac565b5060208310610133831016604e8410600b84101617156105825782820a90508381111561057d5761057c6106ac565b5b6105ac565b61058f8484846001610442565b925090508184048111156105a6576105a56106ac565b5b81810290505b9392505050565b60006105be82610617565b91506105c983610617565b9250817fffffffffffffffffffffffffffffffffffffffffffffffffffffffffffffffff0483118215151615610602576106016106ac565b5b828202905092915050565b6000819050919050565b6000819050919050565b82818337600083830152505050565b60005b8381101561064e578082015181840152602081019050610633565b8381111561065d576000848401525b50505050565b600061066e82610617565b91507fffffffffffffffffffffffffffffffffffffffffffffffffffffffffffffffff8214156106a1576106a06106ac565b5b600182019050919050565b7f4e487b7100000000000000000000000000000000000000000000000000000000600052601160045260246000fd5b7f4e487b7100000000000000000000000000000000000000000000000000000000600052604160045260246000fd5b6000601f19601f8301169050919050565b60008160011c9050919050565b6107318161060d565b811461073c57600080fd5b5056fea264697066735822122097bbb74e7ed25b3df0f814623164afdb7c2dcc843e464b54110664d4b43df54464736f6c63430008000033",
  "immutableReferences": {},
  "source": "// SPDX-License-Identifier: MIT\npragma solidity ^0.8.0;\n\n// Contract definition\ncontract Keygen {\n    // Function to generate Keccak-256 hash from a string\n    function generateKeccak256(string memory input) public pure returns (bytes32) {\n        // Convert the string to bytes and calculate the Keccak-256 hash\n        return keccak256(abi.encodePacked(input));\n    }\n\n    function bytes32ToString(bytes32 data) public pure returns (string memory) {\n        bytes memory bytesString = new bytes(32);\n        for (uint256 i = 0; i < 32; i++) {\n            bytes1 char = bytes1(bytes32(uint256(data) * 2 ** (8 * i)));\n            bytesString[i] = char;\n        }\n        return string(bytesString);\n    }\n}\n",
  "sourcePath": "/home/kub/Desktop/Blockchain_project/contracts/Keygen.sol",
  "compiler": {
    "name": "solc",
    "version": "0.8.0+commit.c7dfd78e.Emscripten.clang"
  },
  "schemaVersion": "3.4.15",
  "updatedAt": "2024-01-31T11:47:49.426Z",
  "networkType": "ethereum",
  "devdoc": {
    "kind": "dev",
    "methods": {},
    "version": 1
  },
  "userdoc": {
    "kind": "user",
    "methods": {},
    "version": 1
  }
}