{
  "contractName": "Payment",
  "abi": [
    {
      "inputs": [],
      "stateMutability": "nonpayable",
      "type": "constructor"
    },
    {
      "inputs": [],
      "name": "owner",
      "outputs": [
        {
          "internalType": "address payable",
          "name": "",
          "type": "address"
        }
      ],
      "stateMutability": "view",
      "type": "function",
      "constant": true
    },
    {
      "inputs": [
        {
          "internalType": "address payable",
          "name": "_receiver",
          "type": "address"
        }
      ],
      "name": "makePaymentTo",
      "outputs": [],
      "stateMutability": "payable",
      "type": "function",
      "payable": true
    }
  ],
  "bytecode": "0x608060405234801561001057600080fd5b50336000806101000a81548173ffffffffffffffffffffffffffffffffffffffff021916908373ffffffffffffffffffffffffffffffffffffffff16021790555061027e806100606000396000f3fe6080604052600436106100295760003560e01c806349701c5e1461002e5780638da5cb5b1461004a575b600080fd5b6100486004803603810190610043919061013b565b610075565b005b34801561005657600080fd5b5061005f610102565b60405161006c91906101b3565b60405180910390f35b600034116100b8576040517f08c379a00000000000000000000000000000000000000000000000000000000081526004016100af906101ce565b60405180910390fd5b8073ffffffffffffffffffffffffffffffffffffffff166108fc349081150290604051600060405180830381858888f193505050501580156100fe573d6000803e3d6000fd5b5050565b60008054906101000a900473ffffffffffffffffffffffffffffffffffffffff1681565b60008135905061013581610231565b92915050565b60006020828403121561014d57600080fd5b600061015b84828501610126565b91505092915050565b61016d816101ff565b82525050565b60006101806012836101ee565b91507f496e73756666696369656e742066756e647300000000000000000000000000006000830152602082019050919050565b60006020820190506101c86000830184610164565b92915050565b600060208201905081810360008301526101e781610173565b9050919050565b600082825260208201905092915050565b600061020a82610211565b9050919050565b600073ffffffffffffffffffffffffffffffffffffffff82169050919050565b61023a816101ff565b811461024557600080fd5b5056fea26469706673582212207876bcaf561398bca18aa677228f0edde5e239987886accdf554331f90742f1a64736f6c63430008000033",
  "immutableReferences": {},
  "source": "// Payment.sol\npragma solidity ^0.8.0;\n\ncontract Payment {\n    address payable public owner;\n\n    constructor() {\n        owner = payable(msg.sender);\n    }\n\n    function makePaymentTo(address payable _receiver) external payable {\n        require(msg.value > 0, \"Insufficient funds\");\n        _receiver.transfer(msg.value);\n    }\n}\n",
  "sourcePath": "/home/kub/Desktop/Blockchain_project/contracts/Payment.sol",
  "compiler": {
    "name": "solc",
    "version": "0.8.0+commit.c7dfd78e.Emscripten.clang"
  },
  "schemaVersion": "3.4.15",
  "updatedAt": "2024-02-05T17:52:24.923Z",
  "networkType": "ethereum",
  "devdoc": {
    "kind": "dev",
    "methods": {},
    "version": 1
  },
  "userdoc": {
    "kind": "user",
    "methods": {},
    "version": 1
  }
}