{
  "contractName": "PaymentContract",
  "abi": [
    {
      "inputs": [],
      "stateMutability": "nonpayable",
      "type": "constructor"
    },
    {
      "inputs": [],
      "name": "owner",
      "outputs": [
        {
          "internalType": "address",
          "name": "",
          "type": "address"
        }
      ],
      "stateMutability": "view",
      "type": "function",
      "constant": true
    },
    {
      "inputs": [
        {
          "internalType": "address payable",
          "name": "recipient",
          "type": "address"
        }
      ],
      "name": "makePayment",
      "outputs": [],
      "stateMutability": "payable",
      "type": "function",
      "payable": true
    }
  ],
  "bytecode": "0x608060405234801561001057600080fd5b50336000806101000a81548173ffffffffffffffffffffffffffffffffffffffff021916908373ffffffffffffffffffffffffffffffffffffffff16021790555061049a806100606000396000f3fe6080604052600436106100295760003560e01c8063300be4fc1461002e5780638da5cb5b1461004a575b600080fd5b61004860048036038101906100439190610239565b610075565b005b34801561005657600080fd5b5061005f610200565b60405161006c919061037d565b60405180910390f35b60008054906101000a900473ffffffffffffffffffffffffffffffffffffffff1673ffffffffffffffffffffffffffffffffffffffff163373ffffffffffffffffffffffffffffffffffffffff1614610103576040517f08c379a00000000000000000000000000000000000000000000000000000000081526004016100fa90610398565b60405180910390fd5b600073ffffffffffffffffffffffffffffffffffffffff168173ffffffffffffffffffffffffffffffffffffffff161415610173576040517f08c379a000000000000000000000000000000000000000000000000000000000815260040161016a906103d8565b60405180910390fd5b600034116101b6576040517f08c379a00000000000000000000000000000000000000000000000000000000081526004016101ad906103b8565b60405180910390fd5b8073ffffffffffffffffffffffffffffffffffffffff166108fc349081150290604051600060405180830381858888f193505050501580156101fc573d6000803e3d6000fd5b5050565b60008054906101000a900473ffffffffffffffffffffffffffffffffffffffff1681565b6000813590506102338161044d565b92915050565b60006020828403121561024b57600080fd5b600061025984828501610224565b91505092915050565b61026b81610409565b82525050565b600061027e6025836103f8565b91507f4f6e6c7920746865206f776e65722063616e2063616c6c20746869732066756e60008301527f6374696f6e0000000000000000000000000000000000000000000000000000006020830152604082019050919050565b60006102e46025836103f8565b91507f5061796d656e7420616d6f756e74206d7573742062652067726561746572207460008301527f68616e20300000000000000000000000000000000000000000000000000000006020830152604082019050919050565b600061034a6019836103f8565b91507f496e76616c696420726563697069656e742061646472657373000000000000006000830152602082019050919050565b60006020820190506103926000830184610262565b92915050565b600060208201905081810360008301526103b181610271565b9050919050565b600060208201905081810360008301526103d1816102d7565b9050919050565b600060208201905081810360008301526103f18161033d565b9050919050565b600082825260208201905092915050565b60006104148261042d565b9050919050565b60006104268261042d565b9050919050565b600073ffffffffffffffffffffffffffffffffffffffff82169050919050565b6104568161041b565b811461046157600080fd5b5056fea2646970667358221220018b1bcd99bacb95cb6000f5442c1215de2f12b5f0a141c7bdd8b2b1b6bb68c064736f6c63430008000033",
  "immutableReferences": {},
  "source": "// SPDX-License-Identifier: MIT\npragma solidity ^0.8.0;\n\ncontract PaymentContract {\n    address public owner;\n\n    constructor() {\n        owner = msg.sender;\n    }\n\n    modifier onlyOwner() {\n        require(msg.sender == owner, \"Only the owner can call this function\");\n        _;\n    }\n\n    function makePayment(address payable recipient) external payable onlyOwner {\n        require(recipient != address(0), \"Invalid recipient address\");\n        require(msg.value > 0, \"Payment amount must be greater than 0\");\n\n        // Transfer the payment to the recipient\n        recipient.transfer(msg.value);\n    }\n}\n",
  "sourcePath": "/home/kub/Desktop/Blockchain_project/contracts/PaymentContract.sol",
  "compiler": {
    "name": "solc",
    "version": "0.8.0+commit.c7dfd78e.Emscripten.clang"
  },
  "schemaVersion": "3.4.15",
  "updatedAt": "2023-10-03T09:53:55.526Z",
  "networkType": "ethereum",
  "devdoc": {
    "kind": "dev",
    "methods": {},
    "version": 1
  },
  "userdoc": {
    "kind": "user",
    "methods": {},
    "version": 1
  }
}