{
  "contractName": "PaymentContract",
  "abi": [
    {
      "inputs": [],
      "stateMutability": "nonpayable",
      "type": "constructor"
    },
    {
      "inputs": [],
      "name": "owner",
      "outputs": [
        {
          "internalType": "address",
          "name": "",
          "type": "address"
        }
      ],
      "stateMutability": "view",
      "type": "function"
    },
    {
      "inputs": [
        {
          "internalType": "address payable",
          "name": "recipient",
          "type": "address"
        }
      ],
      "name": "makePayment",
      "outputs": [],
      "stateMutability": "payable",
      "type": "function"
    }
  ],
  "bytecode": "0x608060405234801561000f575f80fd5b50335f806101000a81548173ffffffffffffffffffffffffffffffffffffffff021916908373ffffffffffffffffffffffffffffffffffffffff1602179055506104a58061005c5f395ff3fe608060405260043610610028575f3560e01c8063300be4fc1461002c5780638da5cb5b14610048575b5f80fd5b61004660048036038101906100419190610277565b610072565b005b348015610053575f80fd5b5061005c6101f6565b60405161006991906102c2565b60405180910390f35b5f8054906101000a900473ffffffffffffffffffffffffffffffffffffffff1673ffffffffffffffffffffffffffffffffffffffff163373ffffffffffffffffffffffffffffffffffffffff16146100ff576040517f08c379a00000000000000000000000000000000000000000000000000000000081526004016100f69061035b565b60405180910390fd5b5f73ffffffffffffffffffffffffffffffffffffffff168173ffffffffffffffffffffffffffffffffffffffff160361016d576040517f08c379a0000000000000000000000000000000000000000000000000000000008152600401610164906103c3565b60405180910390fd5b5f34116101af576040517f08c379a00000000000000000000000000000000000000000000000000000000081526004016101a690610451565b60405180910390fd5b8073ffffffffffffffffffffffffffffffffffffffff166108fc3490811502906040515f60405180830381858888f193505050501580156101f2573d5f803e3d5ffd5b5050565b5f8054906101000a900473ffffffffffffffffffffffffffffffffffffffff1681565b5f80fd5b5f73ffffffffffffffffffffffffffffffffffffffff82169050919050565b5f6102468261021d565b9050919050565b6102568161023c565b8114610260575f80fd5b50565b5f813590506102718161024d565b92915050565b5f6020828403121561028c5761028b610219565b5b5f61029984828501610263565b91505092915050565b5f6102ac8261021d565b9050919050565b6102bc816102a2565b82525050565b5f6020820190506102d55f8301846102b3565b92915050565b5f82825260208201905092915050565b7f4f6e6c7920746865206f776e65722063616e2063616c6c20746869732066756e5f8201527f6374696f6e000000000000000000000000000000000000000000000000000000602082015250565b5f6103456025836102db565b9150610350826102eb565b604082019050919050565b5f6020820190508181035f83015261037281610339565b9050919050565b7f496e76616c696420726563697069656e742061646472657373000000000000005f82015250565b5f6103ad6019836102db565b91506103b882610379565b602082019050919050565b5f6020820190508181035f8301526103da816103a1565b9050919050565b7f5061796d656e7420616d6f756e74206d757374206265206772656174657220745f8201527f68616e2030000000000000000000000000000000000000000000000000000000602082015250565b5f61043b6025836102db565b9150610446826103e1565b604082019050919050565b5f6020820190508181035f8301526104688161042f565b905091905056fea26469706673582212201328771277d0955f61f1066fd0481d92189d65f13bb2874cd89bf578c0fd384164736f6c63430008150033",
  "immutableReferences": {},
  "source": "// SPDX-License-Identifier: MIT\npragma solidity ^0.8.0;\n\ncontract PaymentContract {\n    address public owner;\n\n    constructor() {\n        owner = msg.sender;\n    }\n\n    modifier onlyOwner() {\n        require(msg.sender == owner, \"Only the owner can call this function\");\n        _;\n    }\n\n    function makePayment(address payable recipient) external payable onlyOwner {\n        require(recipient != address(0), \"Invalid recipient address\");\n        require(msg.value > 0, \"Payment amount must be greater than 0\");\n\n        // Transfer the payment to the recipient\n        recipient.transfer(msg.value);\n    }\n}\n",
  "sourcePath": "/home/kub/Desktop/Blockchain_project/contracts/payment.sol",
  "compiler": {
    "name": "solc",
    "version": "0.8.21+commit.d9974bed.Emscripten.clang"
  },
  "schemaVersion": "3.4.15",
  "updatedAt": "2023-08-31T10:03:28.790Z",
  "devdoc": {
    "kind": "dev",
    "methods": {},
    "version": 1
  },
  "userdoc": {
    "kind": "user",
    "methods": {},
    "version": 1
  }
}