{
  "contractName": "StringManagement",
  "abi": [
    {
      "inputs": [
        {
          "internalType": "uint256",
          "name": "",
          "type": "uint256"
        }
      ],
      "name": "stringList",
      "outputs": [
        {
          "internalType": "string",
          "name": "",
          "type": "string"
        }
      ],
      "stateMutability": "view",
      "type": "function",
      "constant": true
    },
    {
      "inputs": [
        {
          "internalType": "uint256",
          "name": "index",
          "type": "uint256"
        },
        {
          "internalType": "string",
          "name": "newString",
          "type": "string"
        }
      ],
      "name": "setStringAtIndex",
      "outputs": [],
      "stateMutability": "nonpayable",
      "type": "function"
    },
    {
      "inputs": [
        {
          "internalType": "uint256",
          "name": "index",
          "type": "uint256"
        }
      ],
      "name": "deleteStringAtIndex",
      "outputs": [],
      "stateMutability": "nonpayable",
      "type": "function"
    },
    {
      "inputs": [],
      "name": "getStringCount",
      "outputs": [
        {
          "internalType": "uint256",
          "name": "",
          "type": "uint256"
        }
      ],
      "stateMutability": "view",
      "type": "function",
      "constant": true
    },
    {
      "inputs": [
        {
          "internalType": "uint256",
          "name": "index",
          "type": "uint256"
        }
      ],
      "name": "getStringByIndex",
      "outputs": [
        {
          "internalType": "string",
          "name": "",
          "type": "string"
        }
      ],
      "stateMutability": "view",
      "type": "function",
      "constant": true
    },
    {
      "inputs": [
        {
          "internalType": "string",
          "name": "newString",
          "type": "string"
        }
      ],
      "name": "addString",
      "outputs": [],
      "stateMutability": "nonpayable",
      "type": "function"
    }
  ],
  "bytecode": "0x608060405234801561000f575f80fd5b50610d808061001d5f395ff3fe608060405234801561000f575f80fd5b5060043610610060575f3560e01c80631fca14791461006457806343aa20f614610094578063508cd1aa146100b05780639874f5d7146100ce578063e9622403146100ea578063f5dc000d1461011a575b5f80fd5b61007e6004803603810190610079919061050f565b610136565b60405161008b91906105c4565b60405180910390f35b6100ae60048036038101906100a99190610710565b6101db565b005b6100b861024e565b6040516100c59190610779565b60405180910390f35b6100e860048036038101906100e39190610792565b610259565b005b61010460048036038101906100ff919061050f565b61028d565b60405161011191906105c4565b60405180910390f35b610134600480360381019061012f919061050f565b61037e565b005b5f8181548110610144575f80fd5b905f5260205f20015f91509050805461015c90610806565b80601f016020809104026020016040519081016040528092919081815260200182805461018890610806565b80156101d35780601f106101aa576101008083540402835291602001916101d3565b820191905f5260205f20905b8154815290600101906020018083116101b657829003601f168201915b505050505081565b5f805490508210610221576040517f08c379a000000000000000000000000000000000000000000000000000000000815260040161021890610880565b60405180910390fd5b805f83815481106102355761023461089e565b5b905f5260205f200190816102499190610a68565b505050565b5f8080549050905090565b5f81908060018154018082558091505060019003905f5260205f20015f9091909190915090816102899190610a68565b5050565b60605f8054905082106102d5576040517f08c379a00000000000000000000000000000000000000000000000000000000081526004016102cc90610880565b60405180910390fd5b5f82815481106102e8576102e761089e565b5b905f5260205f200180546102fb90610806565b80601f016020809104026020016040519081016040528092919081815260200182805461032790610806565b80156103725780601f1061034957610100808354040283529160200191610372565b820191905f5260205f20905b81548152906001019060200180831161035557829003601f168201915b50505050509050919050565b5f8054905081106103c4576040517f08c379a00000000000000000000000000000000000000000000000000000000081526004016103bb90610880565b60405180910390fd5b5f8190505b60015f805490506103da9190610b64565b811015610443575f6001826103ef9190610b97565b81548110610400576103ff61089e565b5b905f5260205f20015f828154811061041b5761041a61089e565b5b905f5260205f2001908161042f9190610bf1565b50808061043b90610cd6565b9150506103c9565b505f80548061045557610454610d1d565b5b600190038181905f5260205f20015f61046e9190610473565b905550565b50805461047f90610806565b5f825580601f1061049057506104ad565b601f0160209004905f5260205f20908101906104ac91906104b0565b5b50565b5b808211156104c7575f815f9055506001016104b1565b5090565b5f604051905090565b5f80fd5b5f80fd5b5f819050919050565b6104ee816104dc565b81146104f8575f80fd5b50565b5f81359050610509816104e5565b92915050565b5f60208284031215610524576105236104d4565b5b5f610531848285016104fb565b91505092915050565b5f81519050919050565b5f82825260208201905092915050565b5f5b83811015610571578082015181840152602081019050610556565b5f8484015250505050565b5f601f19601f8301169050919050565b5f6105968261053a565b6105a08185610544565b93506105b0818560208601610554565b6105b98161057c565b840191505092915050565b5f6020820190508181035f8301526105dc818461058c565b905092915050565b5f80fd5b5f80fd5b7f4e487b71000000000000000000000000000000000000000000000000000000005f52604160045260245ffd5b6106228261057c565b810181811067ffffffffffffffff82111715610641576106406105ec565b5b80604052505050565b5f6106536104cb565b905061065f8282610619565b919050565b5f67ffffffffffffffff82111561067e5761067d6105ec565b5b6106878261057c565b9050602081019050919050565b828183375f83830152505050565b5f6106b46106af84610664565b61064a565b9050828152602081018484840111156106d0576106cf6105e8565b5b6106db848285610694565b509392505050565b5f82601f8301126106f7576106f66105e4565b5b81356107078482602086016106a2565b91505092915050565b5f8060408385031215610726576107256104d4565b5b5f610733858286016104fb565b925050602083013567ffffffffffffffff811115610754576107536104d8565b5b610760858286016106e3565b9150509250929050565b610773816104dc565b82525050565b5f60208201905061078c5f83018461076a565b92915050565b5f602082840312156107a7576107a66104d4565b5b5f82013567ffffffffffffffff8111156107c4576107c36104d8565b5b6107d0848285016106e3565b91505092915050565b7f4e487b71000000000000000000000000000000000000000000000000000000005f52602260045260245ffd5b5f600282049050600182168061081d57607f821691505b6020821081036108305761082f6107d9565b5b50919050565b7f496e646578206f7574206f6620626f756e6473000000000000000000000000005f82015250565b5f61086a601383610544565b915061087582610836565b602082019050919050565b5f6020820190508181035f8301526108978161085e565b9050919050565b7f4e487b71000000000000000000000000000000000000000000000000000000005f52603260045260245ffd5b5f819050815f5260205f209050919050565b5f6020601f8301049050919050565b5f82821b905092915050565b5f600883026109277fffffffffffffffffffffffffffffffffffffffffffffffffffffffffffffffff826108ec565b61093186836108ec565b95508019841693508086168417925050509392505050565b5f819050919050565b5f61096c610967610962846104dc565b610949565b6104dc565b9050919050565b5f819050919050565b61098583610952565b61099961099182610973565b8484546108f8565b825550505050565b5f90565b6109ad6109a1565b6109b881848461097c565b505050565b5b818110156109db576109d05f826109a5565b6001810190506109be565b5050565b601f821115610a20576109f1816108cb565b6109fa846108dd565b81016020851015610a09578190505b610a1d610a15856108dd565b8301826109bd565b50505b505050565b5f82821c905092915050565b5f610a405f1984600802610a25565b1980831691505092915050565b5f610a588383610a31565b9150826002028217905092915050565b610a718261053a565b67ffffffffffffffff811115610a8a57610a896105ec565b5b610a948254610806565b610a9f8282856109df565b5f60209050601f831160018114610ad0575f8415610abe578287015190505b610ac88582610a4d565b865550610b2f565b601f198416610ade866108cb565b5f5b82811015610b0557848901518255600182019150602085019450602081019050610ae0565b86831015610b225784890151610b1e601f891682610a31565b8355505b6001600288020188555050505b505050505050565b7f4e487b71000000000000000000000000000000000000000000000000000000005f52601160045260245ffd5b5f610b6e826104dc565b9150610b79836104dc565b9250828203905081811115610b9157610b90610b37565b5b92915050565b5f610ba1826104dc565b9150610bac836104dc565b9250828201905080821115610bc457610bc3610b37565b5b92915050565b5f81549050610bd881610806565b9050919050565b5f819050815f5260205f209050919050565b818103610bff575050610cd4565b610c0882610bca565b67ffffffffffffffff811115610c2157610c206105ec565b5b610c2b8254610806565b610c368282856109df565b5f601f831160018114610c63575f8415610c51578287015490505b610c5b8582610a4d565b865550610ccd565b601f198416610c7187610bdf565b9650610c7c866108cb565b5f5b82811015610ca357848901548255600182019150600185019450602081019050610c7e565b86831015610cc05784890154610cbc601f891682610a31565b8355505b6001600288020188555050505b5050505050505b565b5f610ce0826104dc565b91507fffffffffffffffffffffffffffffffffffffffffffffffffffffffffffffffff8203610d1257610d11610b37565b5b600182019050919050565b7f4e487b71000000000000000000000000000000000000000000000000000000005f52603160045260245ffdfea264697066735822122084112a0d25d105d051a9a55b12234d44b2c5043dac1b33a9accba2bbe0eb669264736f6c63430008150033",
  "immutableReferences": {},
  "source": "// SPDX-License-Identifier: MIT\npragma solidity ^0.8.0;\n\ncontract StringManagement {\n    // Declare a state variable to store the list of strings\n    string[] public stringList;\n\n    // Function to add or update a string at a specific index\n    function setStringAtIndex(uint256 index, string memory newString) public {\n        require(index < stringList.length, \"Index out of bounds\");\n\n        // Update the string at the specified index\n        stringList[index] = newString;\n    }\n\n    // Function to delete a string at a specific index\n    function deleteStringAtIndex(uint256 index) public {\n        require(index < stringList.length, \"Index out of bounds\");\n\n        // Shift elements to the left to remove the string at the specified index\n        for (uint256 i = index; i < stringList.length - 1; i++) {\n            stringList[i] = stringList[i + 1];\n        }\n\n        // Remove the last element (duplicate)\n        stringList.pop();\n    }\n\n    // Function to retrieve the total count of strings in the list\n    function getStringCount() public view returns (uint256) {\n        return stringList.length;\n    }\n\n    // Function to retrieve a string by its index\n    function getStringByIndex(uint256 index) public view returns (string memory) {\n        require(index < stringList.length, \"Index out of bounds\");\n        return stringList[index];\n    }\n\n    // Function to add a new string to the end of the list\n    function addString(string memory newString) public {\n        stringList.push(newString);\n    }\n}\n",
  "sourcePath": "/home/kub/Desktop/Blockchain_project/contracts/StringManagement.sol",
  "compiler": {
    "name": "solc",
    "version": "0.8.21+commit.d9974bed.Emscripten.clang"
  },
  "schemaVersion": "3.4.15",
  "updatedAt": "2023-09-11T10:31:45.206Z",
  "networkType": "ethereum",
  "devdoc": {
    "kind": "dev",
    "methods": {},
    "version": 1
  },
  "userdoc": {
    "kind": "user",
    "methods": {},
    "version": 1
  }
}