{
  "contractName": "StringManagement",
  "abi": [
    {
      "inputs": [
        {
          "internalType": "uint256",
          "name": "",
          "type": "uint256"
        }
      ],
      "name": "stringList",
      "outputs": [
        {
          "internalType": "string",
          "name": "",
          "type": "string"
        }
      ],
      "stateMutability": "view",
      "type": "function",
      "constant": true
    },
    {
      "inputs": [
        {
          "internalType": "uint256",
          "name": "index",
          "type": "uint256"
        },
        {
          "internalType": "string",
          "name": "newString",
          "type": "string"
        }
      ],
      "name": "setStringAtIndex",
      "outputs": [],
      "stateMutability": "nonpayable",
      "type": "function"
    },
    {
      "inputs": [
        {
          "internalType": "uint256",
          "name": "index",
          "type": "uint256"
        }
      ],
      "name": "deleteStringAtIndex",
      "outputs": [],
      "stateMutability": "nonpayable",
      "type": "function"
    },
    {
      "inputs": [],
      "name": "getStringCount",
      "outputs": [
        {
          "internalType": "uint256",
          "name": "",
          "type": "uint256"
        }
      ],
      "stateMutability": "view",
      "type": "function",
      "constant": true
    },
    {
      "inputs": [
        {
          "internalType": "uint256",
          "name": "index",
          "type": "uint256"
        }
      ],
      "name": "getStringByIndex",
      "outputs": [
        {
          "internalType": "string",
          "name": "",
          "type": "string"
        }
      ],
      "stateMutability": "view",
      "type": "function",
      "constant": true
    },
    {
      "inputs": [
        {
          "internalType": "string",
          "name": "newString",
          "type": "string"
        }
      ],
      "name": "addString",
      "outputs": [],
      "stateMutability": "nonpayable",
      "type": "function"
    }
  ],
  "bytecode": "0x608060405234801561001057600080fd5b50610bb9806100206000396000f3fe608060405234801561001057600080fd5b50600436106100625760003560e01c80631fca14791461006757806343aa20f614610097578063508cd1aa146100b35780639874f5d7146100d1578063e9622403146100ed578063f5dc000d1461011d575b600080fd5b610081600480360381019061007c919061079e565b610139565b60405161008e91906108a3565b60405180910390f35b6100b160048036038101906100ac91906107c7565b6101e5565b005b6100bb610289565b6040516100c891906108e5565b60405180910390f35b6100eb60048036038101906100e6919061075d565b610295565b005b6101076004803603810190610102919061079e565b6102d4565b60405161011491906108a3565b60405180910390f35b6101376004803603810190610132919061079e565b6103f1565b005b6000818154811061014957600080fd5b90600052602060002001600091509050805461016490610a53565b80601f016020809104026020016040519081016040528092919081815260200182805461019090610a53565b80156101dd5780601f106101b2576101008083540402835291602001916101dd565b820191906000526020600020905b8154815290600101906020018083116101c057829003601f168201915b505050505081565b600080549050821061022c576040517f08c379a0000000000000000000000000000000000000000000000000000000008152600401610223906108c5565b60405180910390fd5b8060008381548110610267577f4e487b7100000000000000000000000000000000000000000000000000000000600052603260045260246000fd5b906000526020600020019080519060200190610284929190610570565b505050565b60008080549050905090565b6000819080600181540180825580915050600190039060005260206000200160009091909190915090805190602001906102d0929190610570565b5050565b6060600080549050821061031d576040517f08c379a0000000000000000000000000000000000000000000000000000000008152600401610314906108c5565b60405180910390fd5b60008281548110610357577f4e487b7100000000000000000000000000000000000000000000000000000000600052603260045260246000fd5b90600052602060002001805461036c90610a53565b80601f016020809104026020016040519081016040528092919081815260200182805461039890610a53565b80156103e55780601f106103ba576101008083540402835291602001916103e5565b820191906000526020600020905b8154815290600101906020018083116103c857829003601f168201915b50505050509050919050565b6000805490508110610438576040517f08c379a000000000000000000000000000000000000000000000000000000000815260040161042f906108c5565b60405180910390fd5b60008190505b600160008054905061045091906109d3565b811015610516576000600182610466919061097d565b8154811061049d577f4e487b7100000000000000000000000000000000000000000000000000000000600052603260045260246000fd5b90600052602060002001600082815481106104e1577f4e487b7100000000000000000000000000000000000000000000000000000000600052603260045260246000fd5b906000526020600020019080546104f790610a53565b6105029291906105f6565b50808061050e90610a85565b91505061043e565b50600080548061054f577f4e487b7100000000000000000000000000000000000000000000000000000000600052603160045260246000fd5b60019003818190600052602060002001600061056b9190610683565b905550565b82805461057c90610a53565b90600052602060002090601f01602090048101928261059e57600085556105e5565b82601f106105b757805160ff19168380011785556105e5565b828001600101855582156105e5579182015b828111156105e45782518255916020019190600101906105c9565b5b5090506105f291906106c3565b5090565b82805461060290610a53565b90600052602060002090601f0160209004810192826106245760008555610672565b82601f106106355780548555610672565b8280016001018555821561067257600052602060002091601f016020900482015b82811115610671578254825591600101919060010190610656565b5b50905061067f91906106c3565b5090565b50805461068f90610a53565b6000825580601f106106a157506106c0565b601f0160209004906000526020600020908101906106bf91906106c3565b5b50565b5b808211156106dc5760008160009055506001016106c4565b5090565b60006106f36106ee84610931565b610900565b90508281526020810184848401111561070b57600080fd5b610716848285610a11565b509392505050565b600082601f83011261072f57600080fd5b813561073f8482602086016106e0565b91505092915050565b60008135905061075781610b6c565b92915050565b60006020828403121561076f57600080fd5b600082013567ffffffffffffffff81111561078957600080fd5b6107958482850161071e565b91505092915050565b6000602082840312156107b057600080fd5b60006107be84828501610748565b91505092915050565b600080604083850312156107da57600080fd5b60006107e885828601610748565b925050602083013567ffffffffffffffff81111561080557600080fd5b6108118582860161071e565b9150509250929050565b600061082682610961565b610830818561096c565b9350610840818560208601610a20565b61084981610b5b565b840191505092915050565b600061086160138361096c565b91507f496e646578206f7574206f6620626f756e6473000000000000000000000000006000830152602082019050919050565b61089d81610a07565b82525050565b600060208201905081810360008301526108bd818461081b565b905092915050565b600060208201905081810360008301526108de81610854565b9050919050565b60006020820190506108fa6000830184610894565b92915050565b6000604051905081810181811067ffffffffffffffff8211171561092757610926610b2c565b5b8060405250919050565b600067ffffffffffffffff82111561094c5761094b610b2c565b5b601f19601f8301169050602081019050919050565b600081519050919050565b600082825260208201905092915050565b600061098882610a07565b915061099383610a07565b9250827fffffffffffffffffffffffffffffffffffffffffffffffffffffffffffffffff038211156109c8576109c7610ace565b5b828201905092915050565b60006109de82610a07565b91506109e983610a07565b9250828210156109fc576109fb610ace565b5b828203905092915050565b6000819050919050565b82818337600083830152505050565b60005b83811015610a3e578082015181840152602081019050610a23565b83811115610a4d576000848401525b50505050565b60006002820490506001821680610a6b57607f821691505b60208210811415610a7f57610a7e610afd565b5b50919050565b6000610a9082610a07565b91507fffffffffffffffffffffffffffffffffffffffffffffffffffffffffffffffff821415610ac357610ac2610ace565b5b600182019050919050565b7f4e487b7100000000000000000000000000000000000000000000000000000000600052601160045260246000fd5b7f4e487b7100000000000000000000000000000000000000000000000000000000600052602260045260246000fd5b7f4e487b7100000000000000000000000000000000000000000000000000000000600052604160045260246000fd5b6000601f19601f8301169050919050565b610b7581610a07565b8114610b8057600080fd5b5056fea26469706673582212209582ea201cad185371c3026f359c2444cc8ca54dc964220a227deae432e844ed64736f6c63430008000033",
  "immutableReferences": {},
  "source": "// SPDX-License-Identifier: MIT\npragma solidity ^0.8.0;\n\ncontract StringManagement {\n    // Declare a state variable to store the list of strings\n    string[] public stringList;\n\n    // Function to add or update a string at a specific index\n    function setStringAtIndex(uint256 index, string memory newString) public {\n        require(index < stringList.length, \"Index out of bounds\");\n\n        // Update the string at the specified index\n        stringList[index] = newString;\n    }\n\n    // Function to delete a string at a specific index\n    function deleteStringAtIndex(uint256 index) public {\n        require(index < stringList.length, \"Index out of bounds\");\n\n        // Shift elements to the left to remove the string at the specified index\n        for (uint256 i = index; i < stringList.length - 1; i++) {\n            stringList[i] = stringList[i + 1];\n        }\n\n        // Remove the last element (duplicate)\n        stringList.pop();\n    }\n\n    // Function to retrieve the total count of strings in the list\n    function getStringCount() public view returns (uint256) {\n        return stringList.length;\n    }\n\n    // Function to retrieve a string by its index\n    function getStringByIndex(uint256 index) public view returns (string memory) {\n        require(index < stringList.length, \"Index out of bounds\");\n        return stringList[index];\n    }\n\n    // Function to add a new string to the end of the list\n    function addString(string memory newString) public {\n        stringList.push(newString);\n    }\n}\n",
  "sourcePath": "/home/kub/Desktop/Blockchain_project/contracts/StringManagement.sol",
  "compiler": {
    "name": "solc",
    "version": "0.8.0+commit.c7dfd78e.Emscripten.clang"
  },
  "schemaVersion": "3.4.15",
  "updatedAt": "2023-10-03T09:53:55.528Z",
  "networkType": "ethereum",
  "devdoc": {
    "kind": "dev",
    "methods": {},
    "version": 1
  },
  "userdoc": {
    "kind": "user",
    "methods": {},
    "version": 1
  }
}